:020000040800F2
:10000000005700207D020008AD500008B5470008E9
:10001000A9500008B1050008716100080000000047
:100020000000000000000000000000002152000855
:10003000D10900080000000021510008ED5200081D
:10004000970200089702000897020008970200082C
:10005000970200089702000897020008970200081C
:10006000970200089702000897020008D9070008C5
:10007000E907000897020008F9070008970200083E
:10008000970200080908000897020008E505000823
:10009000B5050008C5050008D50500089702000849
:1000A00097020008FD530008970200089702000815
:1000B0000D540008970200089702000897020008F4
:1000C00097020008970200089702000897020008AC
:1000D000970200089702000897020008970200089C
:1000E0009702000897020008970200082D540008A4
:1000F000970200089702000897020008970200087C
:1001000097020008970200081D5400089702000893
:10011000970200089702000897020008970200085B
:1001200097020008190800089702000897020008C3
:1001300097020008970200089702000825060008A9
:10014000F5050008050600081506000897020008D6
:10015000970200082908000897020008616100085A
:10016000970200089702000897020008970200080B
:10017000970200089702000897020008000000009C
:10018000970200089702000891590008A159000839
:1001900097020008970200089702000897020008DB
:1001A00000000000000000009702000800F002F8C4
:1001B00000F054F814A696E8000CB244B344DA45B3
:1001C00001D100F04BF8BAE80F000FA696E8300016
:1001D000A5EB040504EB0607AAEB0704A7F101074A
:1001E0004FEA15154FEA3414A4F10104AC4201D3CF
:1001F00000F034F813F0010F18BFFB1A43F00103AD
:1002000000F001F8DBE71847E49B0000049C0000C5
:10021000103A24BF78C878C1FAD8520724BF30C832
:1002200030C144BF04680C60704700007047000094
:100230000023002400250026103A28BF78C1FBD8EF
:10024000520728BF30C148BF0B6070471FB509F087
:1002500067FD00F01BF91FBD10B510BD00F072F96D
:100260001146FFF7F3FF08F07BFC00F090F903B4B0
:10027000FFF7F2FF03BC00F093F900000948804744
:1002800009480047FEE7FEE7FEE7FEE7FEE7FEE778
:10029000FEE7FEE7FEE7FEE704480549054A064B90
:1002A00070470000E9530008AD010008005100202C
:1002B00000570020005300200053002053EA020C96
:1002C00000F069802DE9F04B4FF00006002B1FBFB6
:1002D000B3FA83F503FA05F424FA05F65E4012BF7B
:1002E0001643B2FA82F502FA05F4C5F120051EBFE5
:1002F00022FA05FC44EA0C04203556EA044C4FEA85
:10030000144418BF641C4FF000084FF000099042DD
:1003100071EB030C39D3002919BFB1FA81F701FA47
:1003200007F6B0FA80F700FA07F6C7F120071EBFFC
:1003300020FA07FC46EA0C062037B6FBF4FCA7EBD4
:100340000507103F07F01F0BCBF120062CFA06F62D
:100350000CFA0BFB44BFB3460026202FA4BF5E4619
:100360004FF0000B5BEA060C08BF4FF0010B19EBD6
:100370000B0948EB0608ABFB027C06FB02CC0BFB2F
:1003800003CCC01B71EB0C01C1E70B460246414692
:100390004846BDE8F08B13B5084318BF4FF0FF3057
:1003A0000146AFF30080BDE81C407047032A40F2CD
:1003B000308010F0030C00F0158011F8013BBCF107
:1003C000020F624498BF11F801CB00F8013B38BF1F
:1003D00011F8013BA2F1040298BF00F801CB38BF2D
:1003E00000F8013B11F0030300F07180083AC0F0FF
:1003F000088051F8043B083A51F804CBA0E80810F3
:10040000F5E7121D5CBF51F8043B40F8043BAFF325
:100410000080D20724BF11F8013B11F801CB48BF7F
:1004200011F8012B24BF00F8013B00F801CB48BFB5
:1004300000F8012B70474FF0000200B513469446B8
:100440009646203922BFA0E80C50A0E80C50B1F12C
:100450002001BFF4F7AF090728BFA0E80C5048BF40
:100460000CC05DF804EB890028BF40F8042B08BFDE
:10047000704748BF20F8022B11F0804F18BF00F8DA
:10048000012B7047704770477047000008487CB5E3
:100490007844009007487844009C0546019004E0A9
:1004A0002046016808448047241DAC42F8D17CBD39
:1004B000789900008E99000010B500F03BF80068B4
:1004C00010BD10B5044600F035F8046010BD10B53D
:1004D000203AC0F00B80B1E81850A0E81850B1E8FD
:1004E0001850A0E81850203ABFF4F5AF5FEA027C3C
:1004F00024BFB1E81850A0E8185044BF18C918C06C
:10050000BDE810405FEA827C24BF51F8043B40F80C
:10051000043B08BF7047D20728BF31F8023B48BFF1
:1005200011F8012B28BF20F8023B48BF00F8012B2F
:1005300070470000004870471000002000487047D6
:10054000100000207546FFF7F9FFAE46050069462A
:10055000534620F00700854618B020B5FFF79CFEF3
:10056000BDE820404FF000064FF000074FF00008B4
:100570004FF0000BAC46ACE8C009ACE8C009ACE8F1
:10058000C009ACE8C00921F007018D46704710B5DD
:100590000446AFF300802046BDE81040FFF767BE79
:1005A00001491820ABBEFEE726000200704700009C
:1005B000FFE7FEE780B540F66C40C2F2000000F0B5
:1005C000F9FC80BD80B540F66C40C2F2000000F03E
:1005D000F1FC80BD80B540F66C40C2F2000000F036
:1005E000E9FC80BD80B540F66C40C2F2000000F02E
:1005F000E1FC80BD80B540F69440C2F2000000F0FE
:10060000D9FC80BD80B540F69440C2F2000000F0F5
:10061000D1FC80BD80B540F69440C2F2000000F0ED
:10062000C9FC80BD80B540F69440C2F2000000F0E5
:10063000C1FC80BD80B58AB00121089100200590E1
:1006400004900690079100900190029003900E2074
:10065000099040F66C40C2F20000694600F094FA3E
:1006600018B1FFE700F0B6F9FFE740F66C40C2F2C0
:10067000000001F0CBF818B1FFE700F0ABF9FFE79D
:1006800040F66C40C2F20000122100F0A7F918B148
:10069000FFE700F09FF9FFE70E20059040F6944039
:1006A000C2F20000694600F06FFA18B1FFE700F0EF
:1006B00091F9FFE740F69440C2F2000001F0A6F87D
:1006C00018B1FFE700F086F9FFE740F69440C2F268
:1006D0000000122100F082F918B1FFE700F07AF96A
:1006E000FFE70AB080BD000080B506F08FF806F085
:1006F00053FA05F0C9FD80BD80B582B040F60430E4
:10070000C2F20000007855281DD1FFE740F6043002
:10071000C2F200000190411C41F20410C2F200003C
:100720001222FFF743FE0198D0F8131041F2E012B5
:10073000C2F200021160D0F8170040F60041C2F288
:1007400000010860FFE702B080BD000080B540F204
:10075000EC11C2F2000108680130086040F6F8317F
:10076000C2F200015020087040F29870C2F20000FE
:100770004068C1F8010040F20400C2F200000078B5
:10078000C00790B1FFE741F21C00C2F2000040F642
:10079000F831C2F20001052203F086FF40F20401A5
:1007A000C2F200010020087014E040F20400C2F21E
:1007B00000000078C00760B9FFE741F21C00C2F2F8
:1007C000000040F6F831C2F20001052203F06CFF90
:1007D000FFE7FFE780BD000080B540F6DC50C2F2C5
:1007E000000001F00DF980BD80B540F61C50C2F24A
:1007F000000001F005F980BD80B540F6BC40C2F2B2
:10080000000001F0FDF880BD80B540F67C50C2F2DA
:10081000000001F0F5F880BD80B540F63C60C2F202
:10082000000001F0EDF880BD80B540F69C60C2F29A
:10083000000001F0E5F880BD82B0019001980078D9
:1008400010384AF6AB21CAF6AA21A0FB0110000914
:100850000090009949F6C850C0F60000405C01992C
:10086000C8650098042807D3FFE7019908680422A7
:1008700062F30900886506E00199086840F2FF32DA
:1008800090438865FFE70198806D02B070470000D3
:1008900086B0059000208DF813000598806A0390BB
:1008A0000598806910BBFFE70398029003281BD8C6
:1008B0000299DFE801F0020D0218059890F82F0068
:1008C000C00720B1FFE701208DF81300FFE70CE01F
:1008D0000598C06AB0F1C07F04D1FFE701208DF810
:1008E0001300FFE701E000E0FFE745E005988069BD
:1008F000B0F5005F25D1FFE70398019003281ED8CB
:100900000199DFE801F00206021101208DF81300C1
:1009100016E0059890F82F00C00720B1FFE70120EE
:100920008DF81300FFE70BE00598C06AB0F1C07FB7
:1009300004D1FFE701208DF81300FFE700E0FFE797
:1009400019E003980090032804D3FFE700980328D8
:1009500004D00EE001208DF813000BE0059890F80C
:100960002F00C00720B1FFE701208DF81300FFE73B
:1009700000E0FFE7FFE7FFE79DF8130006B07047D0
:1009800084B0039002910192009303980168086873
:1009900020F4802008600098039909684860039853
:1009A0008068402809D1FFE70198039909688860A9
:1009B000029803990968C86008E0029803990968D9
:1009C0008860019803990968C860FFE704B0704720
:1009D0007047000072B6FFE7FEE7000084B00290A7
:1009E0000191029890F820008DF803009DF8030013
:1009F000012805D0FFE79DF8030002280AD1FFE790
:100A0000019A0298016848691043486100208DF8F6
:100A10000F0008E00299486A40F4802048620120F3
:100A20008DF80F00FFE79DF80F0004B0704700003D
:100A300088B00690059104920393069890F82000E0
:100A40008DF8070006980068806800900598806817
:100A500008B9FFE700E0FFE79DF80700012806D08E
:100A6000FFE79DF80700022840F08080FFE79DF82F
:100A70000300400700280CD4FFE79DF8030000079F
:100A8000002806D4FFE79DF80300C006002864D5BF
:100A9000FFE70098C0F301600290029901208840AE
:100AA000039908600598806868B9FFE705980168B0
:100AB000C06840EA415006990968029A01EB0211A8
:100AC000C1F880010EE005994A688868C96840EA63
:100AD000C200084306990968029A01EB0211C1F8A5
:100AE0008001FFE70598006906990968029A01EB01
:100AF0000211C1F884010598007D01280CD1FFE79F
:100B000006980068029900EB0111D1F8840140F4C5
:100B10008070C1F88401FFE704984068069909686D
:100B2000029A01EB0211C1F88C0104980068069941
:100B30000968029A01EB0211C1F888010698006861
:100B4000029900EB0111D1F8800140F00100C1F8D9
:100B5000800100208DF81F0011E00699486A40F4DA
:100B60000010486201208DF81F0008E00699486ACD
:100B700040F48020486201208DF81F00FFE79DF8B7
:100B80001F0008B07047000086B0049003910498DD
:100B900090F820008DF803009DF80300012806D08E
:100BA000FFE79DF80300022840F0B080FFE746F21F
:100BB0000040C4F2000001900199D1F8000240F019
:100BC0000100C1F800020199D1F8000220F47C5024
:100BD000C1F800020398426A0199D1F8000240EA84
:100BE0000220C1F800020398406900F01F010120B3
:100BF00088400290029A0199D1F81C029043C1F8F2
:100C00001C020398C069F0B9FFE7029A0199D1F874
:100C10000C029043C1F80C02039A9088D168526983
:100C200040EA0140019901EBC201C1F84002039A78
:100C300010889168526940EA0140019901EBC201B4
:100C4000C1F84402FFE70398C06901281ED1FFE7FD
:100C5000029A0199D1F80C021043C1F80C02039AD0
:100C600090881168526940EA0140019901EBC20184
:100C7000C1F84002039A90899168526940EA0140A4
:100C8000019901EBC201C1F84402FFE703988069B2
:100C900040B9FFE7029A0199D1F804029043C1F8E4
:100CA000040207E0029A0199D1F804021043C1F846
:100CB0000402FFE70398006940B9FFE7029A01992F
:100CC000D1F814029043C1F8140207E0029A019986
:100CD000D1F814021043C1F81402FFE70398006A28
:100CE000012808D1FFE7029A0199D1F81C021043AC
:100CF000C1F81C02FFE70199D1F8000220F00100C1
:100D0000C1F8000200208DF8170008E00499486A35
:100D100040F48020486201208DF81700FFE79DF81D
:100D2000170006B07047000081B0009001B0704716
:100D300086B00490039102920193049890F82000E9
:100D40008DF803009DF80300012806D0FFE79DF809
:100D50000300022840F0E880FFE7039880B9FFE72E
:100D600004980068C068800748B9FFE70499486A9A
:100D700040F40010486201208DF81700DDE00FE01C
:100D8000049800680069800748B9FFE70499486A39
:100D900040F40010486201208DF81700CDE0FFE715
:100DA00004980068039900EB0110D0F8B00100F03E
:100DB0000400029988600298806858B9FFE7049897
:100DC0000068039900EB0110D0F8B001400D0299C2
:100DD00008600AE004980068039900EB0110D0F85D
:100DE000B001C00802994860FFE7049800680399C1
:100DF00000EB0110D0F8B00100F002000299C860C9
:100E000004980068039900EB0110D0F8B40100F0D9
:100E10000F00082804D3FFE70299082008610BE0BF
:100E200004980068039900EB0110D0F8B40100F0B9
:100E30000F0002990861FFE704980068039900EB2E
:100E40000110D0F8B40180B2000A029988610498B8
:100E50000068039900EB0110D0F8B401000C02996E
:100E6000486104980068039900EB0110D0F8B801BC
:100E70000199087004980068039900EB0110D0F8FC
:100E8000B801000A0199487004980068039900EBC2
:100E90000110D0F8B801000C01998870049800681E
:100EA000039900EB0110D0F8B801000E0199C87049
:100EB00004980068039900EB0110D0F8BC01019977
:100EC000087104980068039900EB0110D0F8BC0188
:100ED000000A0199487104980068039900EB011019
:100EE000D0F8BC01000C019988710498006803993E
:100EF00000EB0110D0F8BC01000E0199C8710398F5
:100F000038B9FFE704980168C86840F02000C8605D
:100F100006E004980168086940F020000861FFE7D6
:100F200000208DF8170008E00499486A40F48020FA
:100F3000486201208DF81700FFE79DF8170006B002
:100F40007047000083B0029000200190029890F852
:100F500020008DF803009DF80300012805D0FFE76D
:100F60009DF80300022822D1FFE7029800688068FC
:100F70004001002804D5FFE7019801300190FFE708
:100F80000298006880680001002804D5FFE70198F6
:100F900001300190FFE7029800688068C0000028D7
:100FA00004D5FFE7019801300190FFE7FFE70198C2
:100FB00003B0704780B58AB0099000200890099866
:100FC0000068406907900998006840680690099891
:100FD00000688068059009980068C06804900998C6
:100FE00000680069039009980068806902909DF884
:100FF0001C00C007002800F09480FFE79DF8140053
:10100000C00758B3FFE709980168012088609DF880
:1010100014008007002804D5FFE7099800F040FC81
:101020001BE09DF814004007002805D5FFE708984D
:1010300040F4006008900FE09DF8140000070028BD
:1010400005D5FFE7089840F48050089003E0099820
:1010500000F022FCFFE7FFE7FFE7FFE79DF8150040
:10106000C00760B3FFE7099801684FF4807088609B
:101070009DF815008007002804D5FFE7099800F0C7
:1010800017FC1BE09DF815004007002805D5FFE779
:10109000089840F4005008900FE09DF815000007F4
:1010A000002805D5FFE7089840F48040089003E049
:1010B000099800F0F9FBFFE7FFE7FFE7FFE79DF87E
:1010C0001600C00760B3FFE7099801684FF480304D
:1010D00088609DF816008007002804D5FFE709986E
:1010E00000F0EEFB1BE09DF816004007002805D538
:1010F000FFE7089840F4004008900FE09DF81600C4
:101100000007002805D5FFE7089840F480300890D4
:1011100003E0099800F0D0FBFFE7FFE7FFE7FFE7F8
:10112000FFE79DF81C000007002810D5FFE79DF899
:101130001000C006002809D5FFE7089840F40070A9
:101140000890099801681020C860FFE7FFE79DF844
:101150001C00400700280FD5FFE79DF8100000078E
:10116000002808D5FFE7099801680820C860099899
:1011700000F006FBFFE7FFE79DF81C008007002852
:101180000BD5FFE709980068C068800720B1FFE72A
:10119000099800F0F9FAFFE7FFE79DF81C00400608
:1011A000002810D5FFE79DF80C00C006002809D5DF
:1011B000FFE7089840F480600890099801681020C3
:1011C0000861FFE7FFE79DF81C00800600280FD5A7
:1011D000FFE79DF80C000007002808D5FFE70998F5
:1011E000016808200861099800F004FBFFE7FFE7A9
:1011F0009DF81C00C00600280BD5FFE70998006881
:101200000069800720B1FFE7099800F0F7FAFFE7CF
:10121000FFE79DF81E00800700280FD5FFE79DF827
:101220001800C006002808D5FFE7099801681020BB
:101230004860099800F0E6FAFFE7FFE79DF81E0016
:10124000C00778B1FFE79DF818000007002808D50F
:10125000FFE70998016808204860099800F034FB0E
:10126000FFE7FFE79DF81D000006002840F18D8094
:10127000FFE79DF818004007002840F18180FFE754
:101280009DF81D00C00750B1FFE79DF80800C0079A
:1012900028B1FFE7089840F001000890FFE79DF8AB
:1012A0001D00800700280BD5FFE79DF80800800788
:1012B000002805D5FFE7089840F002000890FFE7F6
:1012C0009DF81D00400700280BD5FFE79DF808009A
:1012D0004007002805D5FFE7089840F00400089073
:1012E000FFE79DF81D000007002848D5FFE79DF89F
:1012F000080010F0700F42D0FFE7029800F0700075
:1013000001460191102814D0FFE70198202815D03C
:10131000FFE70198302816D0FFE70198402817D042
:10132000FFE70198502818D0FFE70198602819D0EE
:101330001DE0089840F00800089019E0089840F077
:101340001000089014E0089840F0200008900FE08A
:10135000089840F0400008900AE0089840F08000AB
:10136000089005E0089840F48070089000E0FFE7DE
:1013700009980168886920F070008861FFE7FFE73D
:101380000998016804204860FFE7089848B1FFE722
:10139000089A0999486A104348620998FFF7C4FC03
:1013A000FFE70AB080BD000080B584B002900298CB
:1013B00020B9FFE701208DF80F00E0E0029890F8D7
:1013C000200020B9FFE7029800F0DEF8FFE702985E
:1013D0000168086840F00100086000F0B3FF019068
:1013E000FFE7029800684068C007A8B9FFE700F06F
:1013F000A9FF0199401A0B280DD3FFE70299486A0B
:1014000040F4003048620299052081F82000012054
:101410008DF80F00B3E0E4E702980168086820F057
:101420000200086000F08EFF0190FFE7029800685C
:1014300040688007002815D5FFE700F083FF019979
:10144000401A0B280DD3FFE70299486A40F4003098
:1014500048620299052081F8200001208DF80F00D4
:101460008DE0E3E70298007E012807D1FFE70298AC
:101470000168086840F08000086006E00298016892
:10148000086820F080000860FFE70298407E01288D
:1014900007D1FFE702980168086840F04000086043
:1014A00006E002980168086820F040000860FFE745
:1014B0000298807E012807D1FFE70298016808683A
:1014C00040F02000086006E002980168086820F0FB
:1014D00020000860FFE70298C07E012807D1FFE7DF
:1014E00002980168086820F01000086006E0029881
:1014F0000168086840F010000860FFE70298007F6C
:10150000012807D1FFE702980168086840F0080049
:10151000086006E002980168086820F0080008608A
:10152000FFE70298407F012807D1FFE70298016892
:10153000086840F00400086006E002980168086846
:1015400020F004000860FFE7029B19685A68986859
:10155000D3F80CC040EA0C00D3F810C040EA0C00ED
:101560005B691843013A1043C86102990020486240
:10157000029A012182F820108DF80F00FFE79DF8F4
:101580000F0004B080BD000080B598B01790002017
:10159000169015901490139012901798006846F2C8
:1015A0000041C4F20001884265D1FFE740F2F41027
:1015B000C2F200000168013101600068012812D107
:1015C000FFE7FFE70020119043F64000C4F202005D
:1015D000016841F000710160006800F00070119036
:1015E0001198FFE7FFE7FFE70020109043F6300077
:1015F000C4F20200016841F008010160006800F0D7
:10160000080010901098FFE7032012900221139118
:1016100000210B91149115900920169040F600407E
:10162000C4F2020012A900F095FC0B9A1320079057
:1016300005210A9100F05AFF079800F04DFF0A9922
:101640000B9A1420089000F051FF089800F044FF16
:101650000A990B9A1520099000F048FF099800F0AC
:101660003BFF0A990B9A16200C9000F03FFF0C9854
:1016700000F032FF81E01798006846F60001C4F2DE
:101680000001884278D1FFE7FFE700200F9043F682
:101690004000C4F20200016841F08061016000680E
:1016A00000F080600F900F98FFE740F2F410C2F254
:1016B00000000168013101600068012812D1FFE7D4
:1016C000FFE700200E9043F64000C4F202000168DC
:1016D00041F000710160006800F000700E900E98FB
:1016E000FFE7FFE7FFE700200D9043F63000C4F26C
:1016F0000200016841F002010160006800F0020090
:101700000D900D98FFE74FF4405012900220139077
:10171000002005901490032015900920169040F2A7
:101720000040C4F2020012A900F014FC059A3F2008
:1017300001900521049100F0D9FE019800F0CCFE43
:101740000499059A4020029000F0D0FE029800F023
:10175000C3FE0499059A4120039000F0C7FE039848
:1017600000F0BAFE0499059A4220069000F0BEFEF1
:10177000069800F0B1FEFFE7FFE718B080BD00005B
:1017800081B0009001B0704780B582B0019001989F
:1017900040F66C41C2F20001884210D1FFE740F2EE
:1017A0007402C2F2000202F11C0340F66C40C2F265
:1017B00000000021FFF7BCFA04F0EEFEFFE70198FD
:1017C00040F69441C2F20001884210D1FFE740F296
:1017D0009802C2F2000202F11C0340F69440C2F2E9
:1017E00000000021FFF7A4FA04F0F2FFFFE702B0C7
:1017F00080BD000081B0009001B0704781B00090C2
:1018000001B0704781B0009001B0704780B584B0DE
:101810000290029890F8200001282FD1FFE702994A
:10182000022081F8200002980168086820F0010079
:10183000086000F087FD0190FFE7029800684068AB
:10184000C007A8B1FFE700F07DFD0199401A0B2801
:101850000DD3FFE70299486A40F4003048620299CC
:10186000052081F8200001208DF80F000FE0E4E74B
:101870000299002048628DF80F0008E00299486A3A
:1018800040F40020486201208DF80F00FFE79DF82A
:101890000F0004B080BD000081B0009001B070471F
:1018A00081B0009001B0704781B0009001B07047E6
:1018B00081B0009001B0704781B0009001B07047D6
:1018C00081B0009001B0704781B0009001B07047C6
:1018D00080B584B002900298806D019000F032FDD6
:1018E0000090029890F8350002280DD0FFE7029989
:1018F00080204865FFE70299002081F83400FFE767
:1019000001208DF80F0055E002980168086820F06A
:101910001600086002980168486920F0800048615C
:101920000298006C20B9FFE70298806C38B1FFE79D
:1019300002980168086820F008000860FFE7029834
:101940000168086820F001000860FFE7029800685D
:101950000068C007C8B1FFE700F0F4FC0099401A26
:10196000062811D3FFE70299202048650299032039
:1019700081F83500FFE70299002081F83400FFE785
:1019800003208DF80F0015E0E0E70298C16D3F20BD
:101990008840019988600299012081F83500FFE7AD
:1019A0000299002081F83400FFE7FFE700208DF85E
:1019B0000F00FFE79DF80F0004B080BD82B00090DB
:1019C000009890F83500022807D0FFE700998020A2
:1019D000486501208DF807000EE00099052081F888
:1019E000350000980168086820F001000860FFE7F2
:1019F00000208DF80700FFE79DF8070002B0704750
:101A000080B586B005900020039040F20000C2F23D
:101A10000000006848F2B511C1F64E31A0FB01107C
:101A2000800A02900598806D0190019800680490EA
:101A300004980599C96DC840000700281AD5FFE72A
:101A40000598006800684007002812D5FFE7059850
:101A50000168086820F0040008600598C16D08203E
:101A60008840019988600599486D40F001004865FB
:101A7000FFE7FFE704980599C96DC840C007A0B10A
:101A8000FFE7059800684069000600280CD5FFE7CD
:101A90000598C16D01208840019988600599486DBD
:101AA00040F002004865FFE7FFE704980599C96D1B
:101AB000C8404007002814D5FFE705980068006873
:101AC000800700280CD5FFE70598C16D04208840E9
:101AD000019988600599486D40F004004865FFE76A
:101AE000FFE704980599C96DC840C006002847D58E
:101AF000FFE7059800680068000700283FD5FFE76A
:101B00000598C16D1020884001998860059800688B
:101B10000068400300281AD5FFE7059800680068B0
:101B20000003002809D4FFE70598006C20B1FFE707
:101B30000598016C8847FFE708E00598806C20B1A4
:101B4000FFE70598816C8847FFE7FFE716E00598F7
:101B500000680068C005002807D4FFE70598016801
:101B6000086820F008000860FFE70598006C20B1C5
:101B7000FFE70598016C8847FFE7FFE7FFE7FFE70E
:101B800004980599C96DC8408006002840F18D80F1
:101B9000FFE7059800680068C006002840F18480CF
:101BA000FFE70598C16D202088400199886005985D
:101BB00090F83500052834D1FFE7059801680868DA
:101BC00020F01600086005980168486920F0800040
:101BD00048610598006C20B9FFE70598806C38B122
:101BE000FFE705980168086820F008000860FFE733
:101BF0000598C16D3F2088400199886005990120B2
:101C000081F83500FFE70599002081F83400FFE7EF
:101C10000598006D20B1FFE70598016D8847FFE743
:101C20007BE0059800680068400300281AD5FFE7AC
:101C30000598006800680003002809D4FFE70598AC
:101C4000406C20B1FFE70598416C8847FFE708E04A
:101C50000598C06B20B1FFE70598C16B8847FFE787
:101C6000FFE720E0059800680068C005002811D44F
:101C7000FFE705980168086820F0100008600599E2
:101C8000012081F83500FFE70599002081F8340034
:101C9000FFE7FFE70598C06B20B1FFE70598C16B30
:101CA0008847FFE7FFE7FFE7FFE70598406DA0B330
:101CB000FFE70598406DC00730B3FFE705990520A1
:101CC00081F8350005980168086820F00100086077
:101CD000FFE70398013003900299884201D9FFE79A
:101CE00007E0FFE7059800680068C0070028F0D10A
:101CF000FFE70599012081F83500FFE705990020ED
:101D000081F83400FFE7FFE70598C06C20B1FFE7DA
:101D10000598C16C8847FFE7FFE706B080BD00006B
:101D200080B586B004900020039000F00BFB029079
:101D3000049820B9FFE701208DF81700A3E004986C
:101D4000406A08B1FFE7FFE70499022081F83500F7
:101D5000FFE70499002081F83400FFE70498016848
:101D6000086820F001000860FFE704980068006838
:101D7000C00790B1FFE700F0E5FA0299401A062883
:101D80000AD3FFE70499202048650499032081F8CD
:101D900035008DF8170076E0E7E7049800680068E2
:101DA0000390039848F23F01CFF2100108400390DE
:101DB000049900914868D1F808C0CB680A6940EAE4
:101DC0000C00184310434A6910438A691043CA69DA
:101DD0001043096A01430398084303900498406A3A
:101DE000042808D1FFE70499C86A096B01430398E6
:101DF00008430390FFE70398049909680860049872
:101E0000006840690390039820F00700039004984D
:101E1000416A0398084303900498406A04281AD141
:101E2000FFE70498816A0398084303900498C06A06
:101E300080B1FFE70498FEF72BFD50B1FFE704994E
:101E4000402048650499012081F835008DF817007D
:101E500019E0FFE7FFE703980499096848610498CF
:101E6000FEF7EAFC01900498C16D3F20884001997B
:101E70008860049900204865049A012182F8351091
:101E80008DF81700FFE79DF8170006B080BD000031
:101E900080B588B0069005910492039300208DF8D8
:101EA0000B000698806D0190FFE7069890F83400CB
:101EB000012804D1FFE702208DF81F0045E00699B4
:101EC000012081F83400FFE7FFE7069890F835001D
:101ED00001282BD1FFE70699022081F835000699E9
:101EE0000020486506980599049A039BFEF748FD73
:101EF0000698C16D3F208840019988600698016866
:101F0000086840F0160008600698006C38B1FFE7DA
:101F100006980168086840F008000860FFE7069826
:101F20000168086840F00100086009E0FFE70699D1
:101F3000002081F83400FFE702208DF80B00FFE756
:101F40009DF80B008DF81F00FFE79DF81F0008B0FB
:101F500080BD000090B00F900E9100200C900B906F
:101F60000A900D90FFE70D980F2800F2E881FFE737
:101F70000D99012088400C900E9800680C9908403B
:101F80000B900B980C99884240F0D481FFE70E9893
:101F9000406800F00300012807D0FFE70E98406872
:101FA00000F0030002282FD1FFE70F9880680A9005
:101FB0000D984100032000FA01F10A9888430A9025
:101FC0000E98C0680D99490000FA01F10A9808437B
:101FD0000A900A980F9988600F9840680A900D99A6
:101FE000012000FA01F10A9888430A900E9840688F
:101FF000C0F300100D9900FA01F10A9808430A9005
:102000000A980F994860FFE70E98406800F00300B7
:10201000032818D0FFE70F98C0680A900D98410078
:10202000032000FA01F10A9888430A900E9880680C
:102030000D99490000FA01F10A9808430A900A989C
:102040000F99C860FFE70E98406800F0030002286F
:1020500026D1FFE70F980D996FF0030202EA5101B4
:102060000844006A0A900D9800F0070081000F20D4
:1020700000FA01F10A9888430A900E9800690D99B8
:1020800001F00701890000FA01F10A9808430A905B
:102090000A980F990D9B02EA530211440862FFE768
:1020A0000F9800680A900D984100032000FA01F192
:1020B0000A9888430A900E98406800F003000D9932
:1020C000490000FA01F10A9808430A900A980F990A
:1020D00008600E9880798007002800F02A81FFE7C9
:1020E000FFE70020099043F64400C4F202000168B3
:1020F00041F480410160006800F480400990099833
:10210000FFE70D9820F0030043F60801C4F2010137
:1021100040580A900D9800F0030081000F2000FA4B
:1021200001F10A9888430A900F980021C4F2020135
:10213000884203D1FFE7002008907AE00F9840F230
:102140000041C4F20201884203D1FFE70120079059
:102150006CE00F9840F60001C4F20201884203D1FE
:10216000FFE7022006905EE00F9840F60041C4F2BF
:102170000201884203D1FFE70320059050E00F9849
:1021800041F20001C4F20201884203D1FFE70420BA
:10219000049042E00F9841F20041C4F202018842EB
:1021A00003D1FFE70520039034E00F9841F60001CA
:1021B000C4F20201884203D1FFE70620029026E024
:1021C0000F9841F60041C4F20201884203D1FFE7B3
:1021D0000720019018E00F9842F20001C4F20201BA
:1021E000884203D1FFE7082000900AE00F9942F2ED
:1021F0000042C4F202020A20914208BF0920009066
:10220000FFE700980190FFE701980290FFE702982E
:102210000390FFE703980490FFE704980590FFE719
:1022200005980690FFE706980790FFE70798089043
:10223000FFE70898C0B20D9901F00301890000FA88
:1022400001F10A9808430A900A980D9921F00301B8
:1022500043F60802C4F20102885043F60840C4F273
:10226000010000680A900B990A9888430A900E981A
:102270008079C006002805D5FFE70B990A98084326
:102280000A90FFE70A9843F60841C4F2010108608A
:1022900043F60C40C4F2010000680A900B990A98BA
:1022A00088430A900E9880798006002805D5FFE7BC
:1022B0000B990A9808430A90FFE70A9843F60C41E5
:1022C000C4F20101086043F60440C4F20100006852
:1022D0000A900B990A9888430A900E988079800793
:1022E000002805D5FFE70B990A9808430A90FFE7F5
:1022F0000A9843F60441C4F20101086043F6004025
:10230000C4F2010000680A900B990A9888430A9069
:102310000E988079C00728B1FFE70B990A98084307
:102320000A90FFE70A9843F60041C4F201010860F1
:10233000FFE7FFE7FFE70D9801300D9013E610B0BF
:102340007047000044F6F850C2F200000068704781
:1023500040F20500C2F20000027844F6F851C2F2E1
:1023600000010868104408607047000080B543F61B
:102370000041C4F20201086840F400700860086877
:1023800040F480600860086840F4807008600320B2
:1023900000F0C6F80F2000F005F800F071F80020FA
:1023A00080BD000080B58CB00B900020059004909B
:1023B000FFE70020019043F64400C4F202000168E8
:1023C00041F001010160006800F0010001900198F6
:1023D000FFE706A803A900F03DFA00F07DFA4000EF
:1023E000059005984DF68361C4F21B31A0FB0101F5
:1023F0004FF0FF3000EB9140049040F6FC60C2F2D9
:1024000000000021C4F20101016040F2E731C16027
:1024100004994160002101618160816100F0DCFE6E
:102420008DF80B009DF80B0028BBFFE740F6FC6021
:10243000C2F2000000F022FF8DF80B009DF80B00A7
:10244000C0B9FFE7192000F047F80B980F280CD807
:10245000FFE70B991920002200F048F80B9840F292
:102460000801C2F20001086003E001208DF80B00B2
:10247000FFE7FFE7FFE79DF80B000CB080BD000011
:1024800080B582B0FFE70020019043F64400C4F21B
:102490000200016841F480410160006800F480405E
:1024A00001900198FFE7FFE70020009043F640000D
:1024B000C4F20200016841F080510160006800F040
:1024C000805000900098FFE76FF001000F2100227C
:1024D00000F00CF802B080BD80B582B08DF8070026
:1024E0009DF9070006F0CAF802B080BD80B586B03D
:1024F0008DF81700049103920020029006F0D6F8A0
:1025000002909DF91700019002980499039A02F035
:10251000CFFD0146019806F0D1F806B080BD00005D
:1025200080B582B00190019806F0EAF802B080BD53
:1025300080B584B000200290FFE70020019043F6B0
:102540004000C4F20200016841F08051016000685F
:1025500000F0805001900198FFE74021C4F20E2165
:1025600001200860FFF7EEFE0290FFE747F204004B
:10257000C4F20000006800F48030B0F5803F0DD058
:10258000FFE7FFF7DFFE0299401AB0F57A7F04D922
:10259000FFE703208DF80F0025E0E7E74421C4F2B0
:1025A0000E2101200860FFF7CDFE0290FFE747F201
:1025B0000400C4F20000006800F40030B0F5003FF1
:1025C0000DD0FFE7FFF7BEFE0299401AB0F57A7F03
:1025D00004D9FFE703208DF80F0004E0E7E70020AF
:1025E0008DF80F00FFE79DF80F0004B080BD0000DC
:1025F00080B584B002900191029820B9FFE70120D4
:102600008DF80F0021E1019843F60041C4F2020168
:10261000096801F00F01884212D9FFE7019943F6DA
:102620000040C4F202000170006800F00F00019940
:10263000884204D0FFE701208DF80F0005E1FFE795
:1026400002980078800700282AD5FFE702980078D2
:102650004007002809D5FFE743F60801C4F202014C
:10266000086840F4E0500860FFE70298007800072F
:10267000002809D5FFE743F60801C4F20201086803
:1026800040F460400860FFE743F60801C4F202012D
:10269000086820F0F000029A926810430860FFE793
:1026A00002980078C00700286ED0FFE702984068C3
:1026B000012811D1FFE743F60000C4F202000068D0
:1026C00000F400310020B0EB514F04D1FFE70120AE
:1026D0008DF80F00B9E02CE002984068022805D080
:1026E000FFE702984068032811D1FFE743F6000096
:1026F000C4F20200006800F000710020B0EB516FDE
:1027000004D1FFE701208DF80F009EE010E043F6B2
:102710000000C4F20200006800F002010020B0EBEB
:10272000510F04D1FFE701208DF80F008DE0FFE786
:10273000FFE743F60801C4F20201086820F0030035
:10274000029A526810430860FFF7FCFD0090FFE713
:1027500043F60800C4F20200006800F00C00029981
:102760004968B0EB810F0ED0FFE7FFF7EBFD009952
:10277000401A41F28931884204D3FFE703208DF8E3
:102780000F0062E0E4E7FFE7019843F60041C4F27E
:102790000201096801F00F01884212D2FFE7019996
:1027A00043F60040C4F202000170006800F00F0020
:1027B0000199884204D0FFE701208DF80F0044E022
:1027C000FFE702980078400700280CD5FFE743F6A2
:1027D0000801C4F20201086820F4E050029AD268AD
:1027E00010430860FFE702980078000700280DD525
:1027F000FFE743F60801C4F20201086820F46040D4
:10280000029A126940EAC2000860FFE700F076F819
:1028100043F60801C4F202010968C9B20A0949F67F
:10282000B051C0F60001895CC84040F20001C2F21C
:102830000001086040F20800C2F200000068FFF7E3
:10284000B1FD00208DF80F00FFE79DF80F0004B0E8
:1028500080BD000082B00190009101990F200860B6
:1028600043F60800C4F20200016801F00301019A76
:102870005160016801F0F001019A9160016801F472
:10288000E051019AD160006800F46040C0080199ED
:10289000086143F60040C4F20200006800F00F0037
:1028A0000099086002B0704740F20000C2F20000D8
:1028B0000068704780B5FFF7F7FF43F60801C4F2E0
:1028C00002010968C1F3822249F6C051C0F6000135
:1028D000895CC84080BD000080B5FFF7E5FF43F686
:1028E0000801C4F20201096889B24A0B49F6C051D5
:1028F000C0F60001895CC84080BD000080B586B08C
:102900000020059004900390029043F60800C4F262
:102910000200006800F00C000146019140B1FFE7A1
:10292000019804280AD0FFE7019808280CD04FE04E
:1029300042F20040C0F2F40002904FE041F6003055
:10294000C0F2B700029049E043F60400C4F202006E
:10295000016801F03F01059100684002002813D58D
:10296000FFE743F60400C4F202000068C0F38810D9
:1029700041F60031C0F2B701A0FB0101059A002326
:10298000FDF79CFC049012E043F60400C4F2020040
:102990000068C0F3881042F20041C0F2F401A0FBCD
:1029A0000101059A0023FDF789FC0490FFE743F637
:1029B0000400C4F20200006800F44031022000EB81
:1029C000D130039004980399B0FBF1F0029005E038
:1029D00042F20040C0F2F4000290FFE7029806B015
:1029E00080BD000080B586B00490049820B9FFE750
:1029F00001208DF8170050E304980078C0070028E4
:102A000000F0A580FFE743F60800C4F2020000686A
:102A100000F00C00042813D0FFE743F60800C4F2CE
:102A20000200006800F00C0008281ED1FFE743F602
:102A30000400C4F2020000684002002815D5FFE738
:102A400043F60000C4F20200006800F400310020E8
:102A5000B0EB514F08D0FFE70498406820B9FFE77A
:102A600001208DF8170018E370E0FFE70498406834
:102A7000B0F5803F09D1FFE743F60001C4F202013F
:102A8000086840F48030086020E004984068B0F5A1
:102A9000A02F0DD1FFE743F60001C4F20201086840
:102AA00040F480200860086840F4803008600CE042
:102AB00043F60001C4F20201086820F48030086087
:102AC000086820F480200860FFE7FFE7FFE704982C
:102AD0004068E8B1FFE7FFF735FC0390FFE743F6F6
:102AE0000000C4F20200006800F400310020B0EBE6
:102AF000514F0CD1FFE7FFF725FC0399401A6528D9
:102B000004D3FFE703208DF81700C6E2E7E71CE0D7
:102B1000FFF718FC0390FFE743F60000C4F2020041
:102B2000006800F400310020B0EB514F0CD0FFE7FB
:102B3000FFF708FC0399401A652804D3FFE7032038
:102B40008DF81700A9E2E7E7FFE7FFE7FFE7049842
:102B500000788007002840F19680FFE743F60800E0
:102B6000C4F20200006810F00C0F13D0FFE743F628
:102B70000800C4F20200006800F00C0008282CD104
:102B8000FFE743F60400C4F2020000684002002898
:102B900023D4FFE743F60000C4F20200006800F00F
:102BA00002010020B0EB510F09D0FFE70498C06884
:102BB000012804D0FFE701208DF817006DE243F6ED
:102BC0000001C4F20201086820F0F800049A1269BA
:102BD00040EAC2000860FFE754E00498C06870B3A0
:102BE000FFE70021C4F2472101200860FFF7AAFB9C
:102BF0000390FFE743F60000C4F20200006800F013
:102C000002010020B0EB510F0CD1FFE7FFF79AFB58
:102C10000399401A032804D3FFE703208DF8170017
:102C20003BE2E7E743F60001C4F20201086820F046
:102C3000F800049A126940EAC200086021E000210D
:102C4000C4F2472100200860FFF77CFB0390FFE7F8
:102C500043F60000C4F20200006800F00201002008
:102C6000B0EB510F0CD0FFE7FFF76CFB0399401A54
:102C7000032804D3FFE703208DF817000DE2E7E7F0
:102C8000FFE7FFE7FFE704980078000700284BD52F
:102C9000FFE70498406918B3FFE740F68061C4F28B
:102CA000472101200860FFF74DFB0390FFE743F643
:102CB0007400C4F20200006800F002010020B0EBD2
:102CC000510F0CD1FFE7FFF73DFB0399401A032892
:102CD00004D3FFE703208DF81700DEE1E7E722E0E9
:102CE00040F68061C4F2472100200860FFF72AFB0C
:102CF0000390FFE743F67400C4F20200006800F09E
:102D000002010020B0EB510F0CD0FFE7FFF71AFBD8
:102D10000399401A032804D3FFE703208DF8170016
:102D2000BBE1E7E7FFE7FFE70498007840070028EA
:102D300040F1CE80FFE700208DF8070043F6400009
:102D4000C4F202000068C000002815D4FFE7FFE7C6
:102D50000020009043F64000C4F20200016841F0F8
:102D600080510160006800F0805000900098FFE7FB
:102D700001208DF80700FFE747F20000C4F20000D1
:102D80000068C005002822D4FFE747F20001C4F222
:102D90000001086840F480700860FFF7D3FA0390E0
:102DA000FFE747F20000C4F200000068C0050028F9
:102DB0000CD4FFE7FFF7C6FA0399401A032804D39F
:102DC000FFE703208DF8170067E1EAE7FFE7FFE779
:102DD00004988068012809D1FFE743F67001C4F226
:102DE0000201086840F0010008601FE00498806854
:102DF00005280DD1FFE743F67001C4F2020108680F
:102E000040F004000860086840F0010008600CE031
:102E100043F67001C4F20201086820F00100086066
:102E2000086820F004000860FFE7FFE7FFE7049868
:102E30008068F8B1FFE7FFF785FA0390FFE743F6F4
:102E40007000C4F20200006800F002010020B0EB44
:102E5000510F0ED1FFE7FFF775FA0399401A41F2BF
:102E60008931884204D3FFE703208DF8170014E16D
:102E7000E5E71EE0FFF766FA0390FFE743F6700010
:102E8000C4F20200006800F002010020B0EB510F14
:102E90000ED0FFE7FFF756FA0399401A41F2893145
:102EA000884204D3FFE703208DF81700F5E0E5E73B
:102EB000FFE79DF80700012809D1FFE743F640012D
:102EC000C4F20201086820F080500860FFE7FFE7C5
:102ED00004988069002800F0DC80FFE743F60800D2
:102EE000C4F20200006800F00C00082800F08580A1
:102EF000FFE70498806902285CD1FFE76021C4F2F3
:102F0000472100200860FFF71DFA0390FFE743F612
:102F10000000C4F20200006800F000710020B0EB75
:102F2000516F0CD0FFE7FFF70DFA0399401A032801
:102F300004D3FFE703208DF81700AEE0E7E704991C
:102F4000C869D1F820C04B6A8A6A40EA0C0040EA9E
:102F50008310D2034FF6FF739A43A2F580321043D9
:102F6000C96A40EA016043F60401C4F20201086044
:102F70006021C4F2472101200860FFF7E3F90390C4
:102F8000FFE743F60000C4F20200006800F00071A1
:102F90000020B0EB516F0CD1FFE7FFF7D3F9039995
:102FA000401A032804D3FFE703208DF8170074E0CC
:102FB000E7E721E06021C4F2472100200860FFF725
:102FC000C1F90390FFE743F60000C4F20200006875
:102FD00000F000710020B0EB516F0CD0FFE7FFF75D
:102FE000B1F90399401A032804D3FFE703208DF8B1
:102FF000170052E0E7E7FFE74AE0049880690128FC
:1030000004D1FFE701208DF8170046E043F60400E5
:10301000C4F202000068029004988069012831D04F
:10302000FFE7029800F480000499C969884229D119
:10303000FFE7029800F03F000499096A884221D115
:10304000FFE7029847F6C07108400499496AB0EB5F
:10305000811F17D1FFE7029800F440300499896A74
:10306000C9034FF6FF729143A1F58031884209D11F
:10307000FFE7029800F070600499C96AB0EB016F35
:1030800004D0FFE701208DF8170006E0FFE7FFE717
:10309000FFE700208DF81700FFE79DF8170006B046
:1030A00080BD000081B0009001B0704781B00090F9
:1030B00001B0704785B003900291FFE7039890F844
:1030C0003C00012804D1FFE702208DF813007EE0C8
:1030D0000399012081F83C00FFE7FFE703990220F4
:1030E00081F83D00039800684068019003980068EB
:1030F00080680090019820F07000019002980168AB
:103100000198084301900198039909684860039861
:1031100000680021C4F2010188423CD0FFE7039817
:103120000068B0F1804F36D0FFE70398006840F2A6
:103130000041C4F2000188422DD0FFE703980068E7
:1031400040F60001C4F20001884224D0FFE7039852
:10315000006840F60041C4F2000188421BD0FFE73E
:103160000398006840F20041C4F20101884212D085
:10317000FFE70398006844F20001C4F201018842AD
:1031800009D0FFE70398006841F60001C4F200018E
:1031900088420ED1FFE7009820F08000009002984E
:1031A0004168009808430090009803990968886076
:1031B000FFE70399012081F83D00FFE70399002014
:1031C00081F83C00FFE700208DF81300FFE79DF831
:1031D000130005B07047000080B582B000900098E1
:1031E00020B9FFE701208DF807003FE0009890F834
:1031F0003D0040B9FFE70099002081F83C000098AD
:1032000000F038F8FFE70099022081F83D000099AE
:1032100051F8040B02F012F90099012081F84600E0
:10322000FFE70099012081F83E00009981F83F00F6
:10323000009981F84000009981F84100FFE7FFE71D
:103240000099012081F84200009981F8430000991B
:1032500081F84400009981F84500FFE700990120BA
:1032600081F83D0000208DF80700FFE79DF807007A
:1032700002B080BD81B0009001B0704783B0019072
:10328000019890F83D00012804D0FFE701208DF857
:103290000B006AE00199022081F83D000198016865
:1032A000C86840F00100C860019800680021C4F2BD
:1032B000010188423CD0FFE701980068B0F1804FDF
:1032C00036D0FFE70198006840F20041C4F20001E7
:1032D00088422DD0FFE70198006840F60001C4F253
:1032E0000001884224D0FFE70198006840F60041C1
:1032F000C4F2000188421BD0FFE70198006840F249
:103300000041C4F20101884212D0FFE70198006831
:1033100044F20001C4F20101884209D0FFE701989C
:10332000006841F60001C4F20001884212D1FFE7B3
:1033300001980068806800F0070000900098062857
:1033400007D0FFE701980168086840F001000860B5
:10335000FFE706E001980168086840F00100086096
:10336000FFE700208DF80B00FFE79DF80B0003B08E
:103370007047000081B0009001B0704780B584B004
:10338000039003980068C068029003980068006981
:1033900001909DF804008007002824D5FFE79DF8E0
:1033A0000800800700281DD5FFE7039801686FF02B
:1033B000020008610399012008770398006880697A
:1033C000800720B1FFE70398FFF7D4FF06E00398DA
:1033D00000F06CF9039800F0CDFAFFE703990020A4
:1033E0000877FFE7FFE79DF804004007002825D590
:1033F000FFE79DF80800400700281ED5FFE7039867
:1034000001686FF0040008610399022008770398AF
:103410000068806910F4407F04D0FFE70398FFF74D
:10342000A9FF06E0039800F041F9039800F0A2FA22
:10343000FFE7039900200877FFE7FFE79DF8040006
:103440000007002824D5FFE79DF8080000070028A2
:103450001DD5FFE7039801686FF008000861039924
:103460000420087703980068C069800720B1FFE74F
:103470000398FFF77FFF06E0039800F017F9039821
:1034800000F078FAFFE7039900200877FFE7FFE7ED
:103490009DF80400C006002825D5FFE79DF8080028
:1034A000C00600281ED5FFE7039801686FF01000E2
:1034B000086103990820087703980068C06910F430
:1034C000407F04D0FFE70398FFF754FF06E003981E
:1034D00000F0ECF8039800F04DFAFFE703990020A4
:1034E0000877FFE7FFE79DF80400C00778B1FFE722
:1034F0009DF80800C00748B1FFE7039801686FF026
:1035000001000861039800F057FBFFE7FFE79DF813
:1035100004000006002810D5FFE79DF8080000060B
:10352000002809D5FFE7039801686FF08000086163
:103530000398FFF7B7FDFFE7FFE79DF8040040069B
:10354000002810D5FFE79DF808004006002809D59F
:10355000FFE7039801686FF040000861039800F0EE
:103560004BFBFFE7FFE79DF804008006002810D51D
:10357000FFE79DF808008006002809D5FFE70398BB
:1035800001686FF0200008610398FFF78FFDFFE7E7
:10359000FFE704B080BD000080B58AB0099000202C
:1035A0000890079006900590049009980068B0F183
:1035B000804F20D1FFE7FFE70020039043F6300063
:1035C000C4F20200016841F001010160006800F0EE
:1035D000010003900398FFE7012004900221059168
:1035E00000210691079108900020C4F2020004A96E
:1035F000FEF7B0FC57E00998006840F60041C4F2BD
:103600000001884222D1FFE7FFE70020029043F645
:103610003000C4F20200016841F0800101600068DE
:1036200000F0800002900298FFE74FF48060049061
:1036300002200590002106910791089041F6004074
:10364000C4F2020004A9FEF785FC2BE0099800688B
:1036500041F60001C4F20001884222D1FFE7FFE7F2
:103660000020019043F63000C4F20200016841F0EE
:1036700080010160006800F0800001900198FFE780
:103680004020049002200590002006900790092019
:10369000089041F60040C4F2020004A9FEF75AFC6B
:1036A000FFE7FFE7FFE70AB080BD000081B00090B0
:1036B00001B0704780B586B004900391029200205B
:1036C0008DF80700FFE7049890F83C00012804D12A
:1036D000FFE702208DF8170089E00499012081F8A6
:1036E0003C00FFE7FFE7029800900C2800F2708092
:1036F0000099DFE801F0076D6D6D206D6D6D3A6D1D
:103700006D6D530004980068039901F085FF0498DB
:103710000168886940F00800886104980168886938
:1037200020F00400886103980269049801688869A0
:103730001043886150E004980068039901F0E2FFAB
:1037400004980168886940F4006088610498016801
:10375000886920F480608861039802690498016890
:10376000886940EA0220886136E00498006803997D
:1037700002F042F804980168C86940F00800C86186
:1037800004980168C86920F00400C86103980269C0
:1037900004980168C8691043C8611DE00498006876
:1037A000039902F0A3F804980168C86940F4006026
:1037B000C86104980168C86920F48060C8610398F2
:1037C000026904980168C86940EA0220C86103E000
:1037D00001208DF80700FFE7FFE70499002081F83A
:1037E0003C00FFE79DF807008DF81700FFE79DF804
:1037F000170006B080BD000080B582B00090009830
:1038000020B9FFE701208DF807003FE0009890F80D
:103810003D0040B9FFE70099002081F83C00009886
:1038200000F038F8FFE70099022081F83D00009988
:1038300051F8040B01F002FE0099012081F84600C6
:10384000FFE70099012081F83E00009981F83F00D0
:10385000009981F84000009981F84100FFE7FFE7F7
:103860000099012081F84200009981F843000099F5
:1038700081F84400009981F84500FFE70099012094
:1038800081F83D0000208DF80700FFE79DF8070054
:1038900002B080BD80B588B0079007980068B0F18D
:1038A000804F1BD1FFE7FFE70020069043F6400062
:1038B000C4F20200016841F001010160006800F0FB
:1038C000010006900698FFE71C20039005210022C6
:1038D000FEF70CFE0398FEF7FFFD49E0079800682D
:1038E00040F60041C4F2000188421BD1FFE7FFE728
:1038F0000020059043F64000C4F20200016841F048
:1039000008010160006800F0080005900598FFE7D5
:103910003220029005210022FEF7E8FD0298FEF712
:10392000DBFD24E00798006841F60001C4F20001C5
:1039300088421BD1FFE7FFE70020049043F64000D8
:10394000C4F20200016841F040010160006800F02B
:10395000400004900498FFE72B20019005210022ED
:10396000FEF7C4FD0198FEF7B7FDFFE7FFE7FFE7AD
:1039700008B080BD81B0009001B0704780B58EB0B6
:103980000C900B9100208DF82B000B9828B9FFE7C5
:103990000C9890F83E0008901CE00B98042805D184
:1039A000FFE70C9890F83F00079010E00B9808286C
:1039B00005D1FFE70C9890F84000069004E00C98C1
:1039C00090F841000690FFE706980790FFE70798F8
:1039D0000890FFE70898012804D0FFE701208DF840
:1039E0003700E5E00B9828B9FFE70C99022081F831
:1039F0003E001EE00B98042806D1FFE70C99022038
:103A000081F83F00059012E00B98082806D1FFE7E7
:103A10000C99022081F84000049005E00C990220E6
:103A200081F841000490FFE704980590FFE70598AE
:103A3000FFE70B9803900C2825D80399DFE801F0E5
:103A4000072323230E232323152323231C000C9851
:103A50000168C86840F00200C86018E00C9801686E
:103A6000C86840F00400C86011E00C980168C8689C
:103A700040F00800C8600AE00C980168C86840F08F
:103A80001000C86003E001208DF82B00FFE79DF8CF
:103A90002B00002840F08780FFE70C9800680B9906
:103AA0000122019201F09CFD01980C990968002205
:103AB000C4F20102914202900CD0FFE70C9800681A
:103AC0004FF60041CBF6FE710844B0FA80F0400991
:103AD0000290FFE70298C00738B1FFE70C98016831
:103AE000486C40F400404864FFE70C9800680021EF
:103AF000C4F2010188423CD0FFE70C980068B0F1A5
:103B0000804F36D0FFE70C98006840F20041C4F2C5
:103B1000000188422DD0FFE70C98006840F60001B4
:103B2000C4F20001884224D0FFE70C98006840F6F8
:103B30000041C4F2000188421BD0FFE70C980068E6
:103B400040F20041C4F20101884212D0FFE70C9814
:103B5000006844F20001C4F20101884209D0FFE785
:103B60000C98006841F60001C4F20001884212D1AD
:103B7000FFE70C980068806800F00700099009983A
:103B8000062807D0FFE70C980168086840F001009C
:103B90000860FFE706E00C980168086840F0010043
:103BA0000860FFE7FFE79DF82B008DF83700FFE77F
:103BB0009DF837000EB080BD80B582B001900198AD
:103BC00000680021C4F20101884203D1FFE7FEF73B
:103BD000BFFBFFE701980068B0F1804F09D1FFE714
:103BE000FCF7B4FD00F0E8FDFCF77EFD01F0CAFA39
:103BF000FFE702B080BD000081B0009001B07047C7
:103C000080B586B004900391ADF80A20049890F82E
:103C10004200202848D1FFE7039820B1FFE7BDF814
:103C20000A0020B9FFE701208DF8170040E0049951
:103C30000120086304990020486304980399BDF8A3
:103C40000A2002F0ABF98DF809000498006B0128F6
:103C500021D1FFE7FFE70020019004980068006889
:103C6000019004980068406801900198FFE7FFE721
:103C7000FFE70498006850E8030F40F01000009040
:103C8000FFE700990498026842E803100028F0D189
:103C9000FFE7FFE703E001208DF80900FFE79DF84B
:103CA00009008DF8170003E002208DF81700FFE7E8
:103CB0009DF8170006B080BD80B584B00390ADF8C4
:103CC0000A100398006841F20041C4F201018842E1
:103CD00018D1FFE741F21C00C2F2000040F60431A7
:103CE000C2F200011B22FFF78BFFFCF705FD40F637
:103CF0002440C2F2000041F20411C2F2000104F0BB
:103D00009FFB23E00398006847F60041C4F20001DE
:103D100088421AD1FFE740F61440C2F20000006862
:103D200040F2F811C2F200010191086541F2AC00C5
:103D3000C2F2000040F24C21C2F20001A422FFF7BF
:103D40005FFF019803F05EF9FFE7FFE704B080BD75
:103D500080B584B00390039800F03AF8000700287B
:103D600033D5FFE70398006841F20041C4F2010136
:103D7000884210D1FFE7FFE70020029041F21C00CB
:103D8000C2F2000001680968029100684068029070
:103D90000298FFE7FFE70398006847F60041C4F286
:103DA0000001884210D1FFE7FFE70020019041F2B7
:103DB000AC00C2F200000168096801910068406827
:103DC00001900198FFE7FFE7FFE704B080BD000026
:103DD00081B000900098406C01B0704780B592B0FF
:103DE0001190119800680068109011980068C068E0
:103DF0000F901198006840690E9000200D900C9073
:103E0000109800F00F000D900D9888B9FFE79DF80D
:103E10004000800600280AD5FFE79DF83C00800698
:103E2000002804D5FFE7119801F066FF02E2FFE7E2
:103E30000D98002800F0C280FFE79DF83800C00709
:103E400038B9FFE7BDF83C0010F4907F00F0B68071
:103E5000FFE79DF84000C00758B1FFE79DF83D001F
:103E6000C00730B1FFE71199486C40F00100486489
:103E7000FFE79DF84000400700280BD5FFE79DF8BD
:103E80003800C00730B1FFE71199486C40F00200DC
:103E90004864FFE79DF84000800700280BD5FFE746
:103EA0009DF83800C00730B1FFE71199486C40F029
:103EB00004004864FFE79DF840000007002811D582
:103EC000FFE79DF83C008006002805D4FFE79DF839
:103ED0003800C00730B1FFE71199486C40F0080086
:103EE0004864FFE71198406C002866D0FFE79DF812
:103EF0004000800600280AD5FFE79DF83C008006B8
:103F0000002804D5FFE7119801F0F6FEFFE71198AD
:103F100000684069C0F380100C901198406C000755
:103F2000002804D4FFE70C9800283ED0FFE7119842
:103F300001F068FE119800684069400600282FD5FE
:103F4000FFE7FFE7FFE71198006850E8050F20F052
:103F500040000B90FFE70B991198026842E80510AA
:103F60000028F0D1FFE7FFE71198C06B98B1FFE799
:103F70001198C16B45F6B110C0F6000008651198A4
:103F8000C06BFDF71BFD28B1FFE71198C06B016DF9
:103F90008847FFE703E01198FFF7DAFEFFE703E049
:103FA0001198FFF7D5FEFFE706E01198FFF7D0FE66
:103FB000119900204864FFE7FFE73BE11198006B8F
:103FC000012840F01781FFE79DF84000C006002857
:103FD00040F11081FFE79DF83C00C006002840F149
:103FE0000981FFE7FFE700200A9011980068006848
:103FF0000A901198006840680A900A98FFE71198A3
:10400000006840694006002840F19A80FFE7119857
:10401000C06B00684068ADF82600BDF82600002897
:1040200075D0FFE7BDF826001199898D88426EDAB8
:10403000FFE7BDF826001199C8851198C06BC069CB
:10404000B0F5807F58D0FFE7FFE7FFE711980068E1
:1040500050E8030F20F480700890FFE7089911984A
:10406000026842E803100028F0D1FFE7FFE7FFE70E
:10407000FFE71198006850E8050F20F00100079055
:10408000FFE707991198026842E805100028F0D16F
:10409000FFE7FFE7FFE7FFE71198006850E8050F2B
:1040A00020F040000690FFE706991198026842E868
:1040B00005100028F0D1FFE7FFE71199202081F8D3
:1040C0004200119900200863FFE7FFE7119800689C
:1040D00050E8030F20F010000590FFE705991198B4
:1040E000026842E803100028F0D1FFE7FFE71198CB
:1040F000C06BFDF7EDFBFFE71199022048631198B3
:10410000818DC28D891A89B2FFF7D6FD17E0BDF8FF
:1041100026001199898D884210D1FFE71198C06B54
:10412000C069B0F5807F08D1FFE71199022048638C
:104130001198818DFFF7C0FDFFE7FFE7FFE779E00A
:104140001199888DC98D401AADF812001198C08D53
:1041500000284ED0FFE7BDF81200002849D0FFE745
:10416000FFE7FFE71198006850E8030F20F4907014
:104170000390FFE703991198026842E803100028B2
:10418000F0D1FFE7FFE7FFE7FFE71198006850E88D
:10419000050F20F001000290FFE7029911980268D4
:1041A00042E805100028F0D1FFE7FFE71199202031
:1041B00081F84200119900200863FFE7FFE711989A
:1041C000006850E8030F20F010000190FFE701990C
:1041D0001198026842E803100028F0D1FFE7FFE7DA
:1041E0001199022048631198BDF81210FFF764FD81
:1041F000FFE71FE09DF84000000600280AD5FFE712
:104200009DF83C000006002804D5FFE7119801F056
:104210005DFF0FE09DF84000400600280AD5FFE74B
:104220009DF83C004006002804D5FFE7119801F0F6
:1042300033FDFFE712B080BD80B582B000900098DA
:1042400020B9FFE701208DF8070040E00098806961
:1042500008B1FFE700E0FFE7009890F8410040B99F
:10426000FFE70099002081F84000009800F034F842
:10427000FFE70099242081F8410000980168C86890
:1042800020F40050C860009801F0EAFD0098016831
:10429000086920F49040086100980168486920F09E
:1042A0002A00486100980168C86840F40050C8605E
:1042B000009900204864009A202182F84110009A59
:1042C00082F84210009948638DF80700FFE79DF8D7
:1042D000070002B080BD000080B598B017900020A4
:1042E000169015901490139012901798006847F646
:1042F0000001C4F20001884240F09380FFE7FFE72D
:104300000020119043F64000C4F20200016841F021
:1043100080410160006800F0804011901198FFE733
:10432000FFE70020109043F63000C4F2020001685D
:1043300041F010010160006800F01000109010982A
:10434000FFE74FF4C07012900220139000200A90F3
:104350001490032015900820169041F20000C4F23A
:10436000020012A9FDF7F6FD0A9940F6BC40C2F220
:1043700000000B9046F25802C4F2020202604FF0B5
:10438000206242608160C1604FF4806202614161DD
:104390008161C16101624162FDF7C2FC18B1FFE7B2
:1043A000FCF718FBFFE7FFE7179840F6BC41C2F2A5
:1043B0000001C16317988863FFE740F61C50C2F202
:1043C0000000099046F22801C4F2020101604FF09A
:1043D00020614160402181600021C1604FF4806212
:1043E000026141618161C16101624162FDF798FC36
:1043F00018B1FFE7FCF7EEFAFFE7FFE7179840F682
:104400001C51C2F20001816317988863FFE75220B4
:10441000089005210022FEF769F80898FEF75CF87D
:1044200037E11798006847F60041C4F2000188425E
:1044300040F09180FFE7FFE700200F9043F6400037
:10444000C4F20200016841F000410160006800F020
:1044500000400F900F98FFE7FFE700200E9043F613
:104460003000C4F20200016841F0100101600068F0
:1044700000F010000E900E98FFE70320129002212A
:10448000139100210691149115900820169041F285
:104490000000C4F2020012A9FDF75CFD069940F687
:1044A0007C50C2F20000079046F2A002C4F2020261
:1044B00002604FF0206242608160C1604FF4806210
:1044C000026141618161C16101624162FDF728FCC5
:1044D00018B1FFE7FCF77EFAFFE7FFE7179840F611
:1044E0007C51C2F20001C16317988863FFE740F670
:1044F000DC50C2F20000059046F21001C4F2020145
:1045000001604FF020614160402181600021C16065
:104510004FF48062026141618161C1610162416267
:10452000FDF7FEFB18B1FFE7FCF754FAFFE7FFE7E2
:10453000179840F6DC51C2F2000181631798886336
:10454000FFE75320049005210022FDF7CFFF0498D8
:10455000FDF7C2FF9CE01798006841F20041C4F2E9
:104560000101884240F09380FFE7FFE700200D90B3
:1045700043F64400C4F20200016841F020010160EA
:10458000006800F020000D900D98FFE7FFE7002085
:104590000C9043F63000C4F20200016841F0400183
:1045A0000160006800F040000C900C98FFE74FF4A9
:1045B0008440129002201390002002901490032057
:1045C00015900820169041F60000C4F2020012A9CE
:1045D000FDF7C0FC029940F63C60C2F20000039077
:1045E00046F22842C4F2020202604FF020624260AA
:1045F0008160C1604FF48062026141618161C1618B
:1046000001624162FDF78CFB18B1FFE7FCF7E2F9AC
:10461000FFE7FFE7179840F63C61C2F20001C16373
:1046200017988863FFE740F69C60C2F20000019093
:1046300046F2A041C4F2020101604FF020614160E6
:10464000402181600021C1604FF4806202614161BC
:104650008161C16101624162FDF762FB18B1FFE750
:10466000FCF7B8F9FFE7FFE7179840F69C61C2F244
:104670000001816317988863FFE7472000900521B8
:104680000022FDF733FF0098FDF726FFFFE7FFE765
:10469000FFE718B080BD000081B0009001B0704706
:1046A00081B0009001B0704780B586B0049003914E
:1046B000ADF80A20049890F8410020286AD1FFE75D
:1046C000039820B1FFE7BDF80A0020B9FFE70120F9
:1046D0008DF8170062E0039804990862BDF80A009B
:1046E00004998884BDF80A000499C88404990020BC
:1046F0004864049A212182F8411004998A6B45F696
:104700007131C0F60001D16304998A6B45F6ED3131
:10471000C0F60001116404998A6B45F6CD11C0F60C
:104720000001D1640499896B086503A8019004987D
:104730000268806B019909680432BDF80A30FDF700
:10474000A7FB58B1FFE70499102048640499202082
:1047500081F8410001208DF817001FE004980168DE
:104760006FF040000860FFE7FFE70498006850E83A
:10477000050F40F080000090FFE700990498026860
:1047800042E805100028F0D1FFE7FFE700208DF890
:10479000170003E002208DF81700FFE79DF81700CF
:1047A00006B080BD81B0009001B0704781B000902C
:1047B00001B07047FFE7FEE780B590B040F61041CA
:1047C000C2F2000108780130087040F62440C2F2BD
:1047D0000000407A022808D0FFE741F2E010C2F260
:1047E00000000068C82875DBFFE740F2B030C2F275
:1047F00000000B90B0F9080000EE100AB8EEC00AF5
:1048000040F2E830C2F20000DFEDCD0ACDED0E0A35
:1048100002F0B4FF0B98DDED0E0A80ED0D0A40F2B8
:10482000DC40C2F200000C90B0F9080000EE100A63
:10483000B8EEC00A40F21450C2F2000002F09EFF2F
:104840000C98DDED0E0A80ED0D0A40F28420C2F2D4
:1048500000000D90B0F9080000EE100AB8EEC00A92
:1048600040F2BC20C2F2000002F088FF0D98DDED9E
:104870000E0A80ED0D0A40F29870C2F200000F900F
:10488000B0F9080000EE100AB8EEC00A40F2D0708D
:10489000C2F2000002F072FF0F9880ED0D0A40F2A4
:1048A0000860C2F2000090F82100C00788B1FFE75D
:1048B00040F20860C2F200000A9040F69441C2F251
:1048C0000001012203F05AFA0A99002081F8210020
:1048D000FFE714E140F62440C2F20000407A0228CB
:1048E00000F00C81FFE740F20860C2F2000090F88F
:1048F0002100C00790B9FFE740F20860C2F2000053
:10490000089040F69441C2F200010122099203F09E
:10491000D1FA0899099881F82100FFE740F2B030F8
:10492000C2F200000390B0F9080000EE100AB8EEE1
:10493000C00A40F2D840C2F20000D0ED000A40F2B6
:10494000E830C2F2000002F019FF039880ED0D0A72
:1049500040F2DC40C2F200000490B0F9080000EE22
:10496000100AB8EEC00A40F20460C2F20000D0EDB6
:10497000000A40F21450C2F2000002F0FFFE049858
:1049800080ED0D0A40F28420C2F200000590B0F9DB
:10499000080000EE100AB8EEC00A40F2AC30C2F2D5
:1049A0000000D0ED000A40F2BC20C2F2000002F08C
:1049B000E5FE059880ED0D0A40F20860C2F20000A5
:1049C000069090ED030AD0ED040A40F24470C2F262
:1049D000000090ED001A40F25460C2F2000002F0B4
:1049E0006FFD8DED070A40F6F420C2F2000003F0DF
:1049F000BFFD0698B0EE401A9DED070A30EE010AA1
:104A000080ED070A40F62440C2F2000090F838001A
:104A100000F0010001280AD0FFE740F62440C2F26E
:104A2000000090F84100C007002841D0FFE740F6A1
:104A30001040C2F200000078022838DBFFE740F6A1
:104A40001041C2F200010020087040F2F810C2F2DA
:104A500000008078C00748B3FFE740F2F810C2F2C8
:104A600000000021817040F6A021C2F2000191ED0A
:104A7000000AD0ED090A40F6A420C2F2000003F0BB
:104A80000BF88DED020A40F60040C2F2000003F080
:104A90004DFDB0EE401A9DED020A30EE010A40F2E3
:104AA0009870C2F2000080ED0D0AFFE7FFE724E0F6
:104AB00040F62440C2F2000090F83900C007D8B197
:104AC000FFE740F2F810C2F2000090ED080AD0EDC6
:104AD000090A40F6A020C2F2000090ED001A40F64C
:104AE000C000C2F2000002F0EBFC40F29870C2F28B
:104AF000000080ED0D0AFFE7FFE7FFE7FFE740F664
:104B00006C40C2F20000019001F01EFE019801F01D
:104B1000EBFD40F20860C2F2000090ED072A40F67B
:104B20009441C2F200010122DFED051AB0EE610AE4
:104B3000F0EE610AB0EE611A03F0EAF910B080BD40
:104B40000000000080B582B040F66C40C2F2000068
:104B5000009046F20041C4F2000101600921416069
:104B6000002101918160C1604FF4803202614FF4F5
:104B700080124261017641768176C1760177417774
:104B8000FCF712FC18B1FFE7FBF724FFFFE702B0C8
:104B900080BD000080B582B040F69440C2F20000B3
:104BA000009046F60001C4F2000101600921416055
:104BB000002101918160C1604FF4803202614FF4A5
:104BC00080124261017641768176C1760177417724
:104BD000FCF7EAFB18B1FFE7FBF7FCFEFFE702B0CA
:104BE00080BD000080B58AB0FFE70020099043F641
:104BF0003000C4F20200016841F4800101600068E5
:104C000000F4800009900998FFE7FFE70020089072
:104C100043F63000C4F20200016841F40011016063
:104C2000006800F4001008900898FFE70B2000903F
:104C30000521059100220692FDF758FC0098FDF72A
:104C40004BFC0599069A0C200190FDF74FFC01984A
:104C5000FDF742FC0599069A0E200290FDF746FCEE
:104C60000298FDF739FC0599069A11200390FDF78B
:104C70003DFC0398FDF730FC0599069A3920049015
:104C8000FDF734FC0498FDF727FC0599069A4520AA
:104C90000790FDF72BFC0798FDF71EFC0AB080BDBE
:104CA000B0B596B049F67850C0F600000168426889
:104CB0008368D0F80CC0D0F810E044691494CDF8A3
:104CC0004CE0CDF848C0119310920F918069159077
:104CD0000FA80021009103F08BFF009940F62042BD
:104CE000C2F20002106049F65C50C0F60000026893
:104CF0004368D0F808C0D0F80CE0046945690D9508
:104D00000C94CDF82CE0CDF828C009930892806966
:104D10000E9008A803F06CFF009940F27002C2F2F6
:104D20000002106049F69450C0F600000268436823
:104D3000D0F808C0D0F80CE00469456906950594E0
:104D4000CDF810E0CDF80CC0029301928069079075
:104D500001A803F04DFF41F20011C2F2000108600A
:104D600016B0B0BD86B0FFE70020059043F63000D6
:104D7000C4F20200016841F010010160006800F017
:104D8000100005900598FFE7FFE70020049043F628
:104D90003000C4F20200016841F040010160006887
:104DA00000F0400004900498FFE7FFE70020039024
:104DB00043F63000C4F20200016841F001010160D5
:104DC000006800F0010003900398FFE7FFE7002070
:104DD000029043F63000C4F20200016841F008017D
:104DE0000160006800F0080002900298FFE7FFE70A
:104DF0000020019043F63000C4F20200016841F047
:104E000080010160006800F0800001900198FFE7D8
:104E1000FFE70020009043F63000C4F20200016872
:104E200041F002010160006800F00200009000986B
:104E3000FFE706B07047000080B588B00021009100
:104E4000079106910591049103910291019140F619
:104E50004470C2F2000041F60002C4F20002026097
:104E6000B3224260816040F27112C26001618161CF
:104E7000FEF7C2FC18B1FFE7FBF7ACFDFFE76020CF
:104E80000190002202920392059240F64470C2F211
:104E9000000001A9FEF70EFC18B1FFE7FBF79AFD31
:104EA000FFE740F64470C2F20000FEF775FB08B061
:104EB00080BD000080B58AB0002100910991089161
:104EC000079106910591049103910291019140F699
:104ED0008C70C2F200004FF080420260B322426048
:104EE000816040F2E732C26001618161FEF784FCBB
:104EF00018B1FFE7FBF76EFDFFE70020089009906F
:104F000040F68C70C2F2000008A9FEF7D3F818B181
:104F1000FFE7FBF75FFDFFE76020019000220292B0
:104F20000392059240F68C70C2F2000001A9FEF7D0
:104F3000C1FB18B1FFE7FBF74DFDFFE740F68C70B2
:104F4000C2F20000FEF728FB0AB080BD80B58AB02F
:104F50000021009109910891079106910591049112
:104F600003910291019140F6D470C2F2000040F624
:104F70000042C4F200020260B3224260816040F24B
:104F8000E732C26001618161FEF736FC18B1FFE7CC
:104F9000FBF720FDFFE700200890099040F6D47051
:104FA000C2F2000008A9FEF785F818B1FFE7FBF789
:104FB00011FDFFE76020019000220292039205920A
:104FC00040F6D470C2F2000001A9FEF773FB18B1DD
:104FD000FFE7FBF7FFFCFFE740F6D470C2F20000EA
:104FE000FEF7DAFA0AB080BD80B582B041F2640003
:104FF000C2F20000019047F60001C4F20001016016
:105000004FF4E131416000218160C16001610C22F7
:1050100042618161C161FFF70FF918B1FFE7FBF74A
:10502000D9FCFFE702B080BD80B582B041F2AC0090
:10503000C2F20000019047F60041C4F20001016095
:105040004FF4E121416000218160C16001610C22C7
:1050500042618161C161FFF7EFF818B1FFE7FBF72B
:10506000B9FCFFE702B080BD80B582B041F21C0000
:10507000C2F20000019041F20041C4F2010101605E
:105080004FF4E121416000218160C16001610C2287
:1050900042618161C161FFF7CFF818B1FFE7FBF70B
:1050A00099FCFFE702B080BDFFE7FEE7FFE7FEE700
:1050B00088B0079006910592079800F007000490C9
:1050C0000498C0F10700052803D3FFE704200190EE
:1050D00004E00498C0F107000190FFE701980390F5
:1050E00004980430062803D8FFE70020009003E06E
:1050F000049803380090FFE70098029006980399FF
:10510000012202FA01F101390840029B98400599F9
:105110009A40013A1140084308B07047000000006F
:10512000EFF30980BFF36F8F154B1A681EF0100F55
:1051300008BF20ED108A20E9F04F10602DE909002A
:105140004FF0500080F31188BFF34F8FBFF36F8F84
:1051500004F040F94FF0000080F31188BDE8090029
:1051600019680868B0E8F04F1EF0100F08BFB0ECE7
:10517000108A80F30988BFF36F8F704700BF00BFAC
:105180002011002080B540F2F810C2F20000006D3E
:1051900040F61441C2F200010968401A652812DB8A
:1051A000FFE741F2AC00C2F2000040F24C21C2F233
:1051B0000001A422FEF724FD40F2F810C2F2000024
:1051C00001F020FFFFE780BD80B5FBF7BFFA41F299
:1051D000AC00C2F2000040F24C21C2F20001A42255
:1051E000FEF70EFD40F2F810C2F2000001F00AFFD7
:1051F00041F21C00C2F2000040F60431C2F200018C
:105200001B22FEF7FDFCFBF777FA40F62440C2F2C2
:10521000000041F20411C2F2000103F011F980BD57
:10522000074B19680868B0E8F04F80F30988BFF3AE
:105230006F8F4FF0000080F31188704700BF00BFF0
:105240002011002080B582B00190FFE7012003F01B
:10525000C1FCFBE780B586B00590FFE740F614413E
:10526000C2F2000108680130086040F6A420C2F2D2
:10527000000090ED0E0A8DED040A40F6A020C2F267
:10528000000090ED000A8DED000A40F2F810C2F225
:10529000000090ED090A8DED010A40F20860C2F2AB
:1052A000000090ED030A8DED020A40F24470C2F254
:1052B000000090ED000A8DED030A40F6F420C2F2E2
:1052C000000003F055F9DDED000A9DED011ADDED5A
:1052D000021A9DED032AF0EE402A9DED040A01F02A
:1052E0003BFE012003F076FCB8E7000080B54FF0EC
:1052F000500080F31188BFF36F8FBFF34F8F04F01E
:1053000019FA30B14EF60450CEF200004FF0805141
:105310000160002080F3118880BD000080B594B04A
:1053200008A83021FBF787F8002007900690059029
:1053300004900390FFE70020029043F64000C4F27F
:105340000200016841F080510160006800F0805067
:1053500002900298FFE7FFE70020019047F200006B
:10536000C4F20000016841F440410160006800F4AB
:10537000404001900198FFE7012008904FF48030F1
:10538000099002200E904FF480010F910621109198
:10539000B421119112900420139008A8FDF722FB6C
:1053A00018B1FFE7FBF716FBFFE7FDF7C1F818B1EF
:1053B000FFE7FBF70FFBFFE70F20039002200490AD
:1053C000002005904FF4A05006904FF480500790B5
:1053D00003A80521FDF70CF918B1FFE7FBF7FAFA6E
:1053E000FFE714B080BD00004EF68851CEF20001F8
:1053F000086840F4700008607047000080B540F60F
:10540000FC60C2F20000FDF7B9FF80BD80B540F638
:105410008C70C2F20000FDF7B1FF80BD80B540F690
:10542000D470C2F20000FDF7A9FF80BD80B540F640
:105430004470C2F20000FDF7A1FF80BD83B002906E
:10544000019102980068009002980021C4F20101C5
:10545000884225D0FFE70298B0F1804F20D0FFE7C7
:10546000029840F20041C4F20001884218D0FFE7E0
:10547000029840F60001C4F20001884210D0FFE714
:10548000029840F60041C4F20001884208D0FFE7CC
:10549000029840F20041C4F2010188420AD1FFE7BC
:1054A000009820F07000009001984168009808432F
:1054B0000090FFE702980021C4F20101884255D014
:1054C000FFE70298B0F1804F50D0FFE7029840F21A
:1054D0000041C4F20001884248D0FFE7029840F63C
:1054E0000001C4F20001884240D0FFE7029840F674
:1054F0000041C4F20001884238D0FFE7029840F230
:105500000041C4F20101884230D0FFE7029844F222
:105510000001C4F20101884228D0FFE7029844F25A
:105520000041C4F20101884220D0FFE7029844F60E
:105530000001C4F20101884218D0FFE7029841F649
:105540000001C4F20001884210D0FFE7029841F642
:105550000041C4F20001884208D0FFE7029842F2FD
:105560000001C4F2000188420AD1FFE7009820F44C
:10557000407000900198C168009808430090FFE7D0
:10558000009820F080000199496908430090019833
:1055900080680299C862019800680299886202983E
:1055A0000021C4F20101884208D0FFE7029840F2CE
:1055B0000041C4F20101884205D1FFE7019800696A
:1055C00002990863FFE70299086840F00400086048
:1055D00002990120486100980299086003B0704761
:1055E00084B0039002910192029800F01F01012003
:1055F00088400090009A0399086A904308620198D5
:10560000029901F01F0100FA01F20399086A1043A0
:10561000086204B07047000085B0049003910498BC
:10562000006A01900499086A20F001000862049859
:1056300040680090049880690290029820F0700001
:105640000290029820F003000290039801680298EB
:1056500008430290019820F00200019003988168AD
:1056600001980843019004980021C4F20101884286
:1056700008D0FFE7049840F20041C4F201018842DB
:105680000ED1FFE7019820F0080001900398C1684F
:10569000019808430190019820F004000190FFE771
:1056A00004980021C4F20101884208D0FFE7049861
:1056B00040F20041C4F20101884213D1FFE7009893
:1056C00020F480700090009820F4007000900398FF
:1056D0004169009808430090039881690098084345
:1056E0000090FFE700980499486002980499886147
:1056F000039840680499486301980499086205B0CA
:105700007047000085B0049003910498006A0190EE
:105710000499086A20F0100008620498406800901C
:10572000049880690290029820F4E0400290029868
:1057300020F44070029003980168029840EA01202A
:105740000290019820F02000019003988168019850
:1057500040EA0110019004980021C4F2010188423E
:1057600008D0FFE7049840F20041C4F201018842EA
:105770000FD1FFE7019820F0800001900398C168E5
:10578000019840EA01100190019820F0400001903A
:10579000FFE704980021C4F20101884208D0FFE726
:1057A000049840F20041C4F20101884215D1FFE79C
:1057B000009820F480600090009820F40060009031
:1057C00003984169009840EA81000090039881693C
:1057D000009840EA81000090FFE700980499486033
:1057E0000298049988610398406804998863019835
:1057F0000499086205B0704785B00490039104983D
:10580000006A01900499086A20F480700862049884
:10581000406800900498C0690290029820F07000DF
:105820000290029820F00300029003980168029809
:1058300008430290019820F4007001900398816859
:10584000019840EA0120019004980021C4F201016E
:10585000884208D0FFE7049840F20041C4F20101F9
:1058600088420FD1FFE7019820F40060019003986F
:10587000C168019840EA01200190019820F48060FD
:105880000190FFE704980021C4F20101884208D08A
:10589000FFE7049840F20041C4F20101884215D1AB
:1058A000FFE7009820F480500090009820F400500A
:1058B000009003984169009840EA01100090039815
:1058C0008169009840EA01100090FFE70098049970
:1058D000486002980499C861039840680499C863B5
:1058E00001980499086205B07047000085B00490E3
:1058F00003910498006A01900499086A20F480508A
:1059000008620498406800900498C0690290029868
:1059100020F4E0400290029820F440700290039836
:105920000168029840EA01200290019820F400509A
:10593000019003988168019840EA01300190049831
:105940000021C4F20101884208D0FFE7049840F228
:105950000041C4F2010188420BD1FFE7009820F416
:105960008040009003984169009840EA81100090BF
:10597000FFE700980499486002980499C861039869
:1059800040680499086401980499086205B070475A
:1059900080B541F26400C2F20000FEF71FFA80BD3C
:1059A00080B541F2AC00C2F20000FEF717FA80BDEC
:1059B00080B582B001900198806B00900099002022
:1059C000C8850098FEF7C4F902B080BD80B584B0E8
:1059D0000390002002900398806B0190019800686A
:1059E0004069C0B2C0090290019890F84100212896
:1059F0000AD1FFE7029838B1FFE701990020C88477
:105A0000019800F05DF9FFE7019800684069C0F374
:105A100080100290019890F8420022280AD1FFE7F6
:105A2000029838B1FFE701990020C885019800F07D
:105A3000E9F8FFE70199486C40F0100048640198CC
:105A4000FEF786F904B080BD80B586B00590059854
:105A5000806B0490059800680068C00500285AD43F
:105A6000FFE704990020C885FFE7FFE70498006876
:105A700050E8030F20F480700390FFE70399049827
:105A8000026842E803100028F0D1FFE7FFE7FFE7D4
:105A9000FFE70498006850E8050F20F0010002902D
:105AA000FFE702990498026842E805100028F0D147
:105AB000FFE7FFE7FFE7FFE70498006850E8050FFE
:105AC00020F040000190FFE701990498026842E845
:105AD00005100028F0D1FFE7FFE70499202081F8A6
